{
  "contractName": "KryptoBird",
  "abi": [
    {
      "inputs": [],
      "stateMutability": "nonpayable",
      "type": "constructor"
    },
    {
      "anonymous": false,
      "inputs": [
        {
          "indexed": true,
          "internalType": "address",
          "name": "_owner",
          "type": "address"
        },
        {
          "indexed": true,
          "internalType": "address",
          "name": "_approved",
          "type": "address"
        },
        {
          "indexed": true,
          "internalType": "uint256",
          "name": "_tokenId",
          "type": "uint256"
        }
      ],
      "name": "Approval",
      "type": "event"
    },
    {
      "anonymous": false,
      "inputs": [
        {
          "indexed": true,
          "internalType": "address",
          "name": "_from",
          "type": "address"
        },
        {
          "indexed": true,
          "internalType": "address",
          "name": "_to",
          "type": "address"
        },
        {
          "indexed": true,
          "internalType": "uint256",
          "name": "_tokenId",
          "type": "uint256"
        }
      ],
      "name": "Transfer",
      "type": "event"
    },
    {
      "inputs": [
        {
          "internalType": "address",
          "name": "_to",
          "type": "address"
        },
        {
          "internalType": "uint256",
          "name": "tokenId",
          "type": "uint256"
        }
      ],
      "name": "approve",
      "outputs": [],
      "stateMutability": "nonpayable",
      "type": "function"
    },
    {
      "inputs": [
        {
          "internalType": "address",
          "name": "_owner",
          "type": "address"
        }
      ],
      "name": "balanceOf",
      "outputs": [
        {
          "internalType": "uint256",
          "name": "",
          "type": "uint256"
        }
      ],
      "stateMutability": "view",
      "type": "function",
      "constant": true
    },
    {
      "inputs": [
        {
          "internalType": "uint256",
          "name": "",
          "type": "uint256"
        }
      ],
      "name": "kryptoBirdz",
      "outputs": [
        {
          "internalType": "string",
          "name": "",
          "type": "string"
        }
      ],
      "stateMutability": "view",
      "type": "function",
      "constant": true
    },
    {
      "inputs": [
        {
          "internalType": "uint256",
          "name": "",
          "type": "uint256"
        }
      ],
      "name": "kryptoMonsDecription",
      "outputs": [
        {
          "internalType": "string",
          "name": "",
          "type": "string"
        }
      ],
      "stateMutability": "view",
      "type": "function",
      "constant": true
    },
    {
      "inputs": [
        {
          "internalType": "uint256",
          "name": "",
          "type": "uint256"
        }
      ],
      "name": "kryptoMonsName",
      "outputs": [
        {
          "internalType": "string",
          "name": "",
          "type": "string"
        }
      ],
      "stateMutability": "view",
      "type": "function",
      "constant": true
    },
    {
      "inputs": [],
      "name": "name",
      "outputs": [
        {
          "internalType": "string",
          "name": "",
          "type": "string"
        }
      ],
      "stateMutability": "view",
      "type": "function",
      "constant": true
    },
    {
      "inputs": [
        {
          "internalType": "uint256",
          "name": "_tokenId",
          "type": "uint256"
        }
      ],
      "name": "ownerOf",
      "outputs": [
        {
          "internalType": "address",
          "name": "",
          "type": "address"
        }
      ],
      "stateMutability": "view",
      "type": "function",
      "constant": true
    },
    {
      "inputs": [
        {
          "internalType": "bytes4",
          "name": "interfaceID",
          "type": "bytes4"
        }
      ],
      "name": "supportsInterface",
      "outputs": [
        {
          "internalType": "bool",
          "name": "",
          "type": "bool"
        }
      ],
      "stateMutability": "view",
      "type": "function",
      "constant": true
    },
    {
      "inputs": [],
      "name": "symbol",
      "outputs": [
        {
          "internalType": "string",
          "name": "",
          "type": "string"
        }
      ],
      "stateMutability": "view",
      "type": "function",
      "constant": true
    },
    {
      "inputs": [
        {
          "internalType": "uint256",
          "name": "index",
          "type": "uint256"
        }
      ],
      "name": "tokenByIndex",
      "outputs": [
        {
          "internalType": "uint256",
          "name": "",
          "type": "uint256"
        }
      ],
      "stateMutability": "view",
      "type": "function",
      "constant": true
    },
    {
      "inputs": [
        {
          "internalType": "address",
          "name": "owner",
          "type": "address"
        },
        {
          "internalType": "uint256",
          "name": "index",
          "type": "uint256"
        }
      ],
      "name": "tokenOfOwnerByIndex",
      "outputs": [
        {
          "internalType": "uint256",
          "name": "",
          "type": "uint256"
        }
      ],
      "stateMutability": "view",
      "type": "function",
      "constant": true
    },
    {
      "inputs": [],
      "name": "totalSupply",
      "outputs": [
        {
          "internalType": "uint256",
          "name": "",
          "type": "uint256"
        }
      ],
      "stateMutability": "view",
      "type": "function",
      "constant": true
    },
    {
      "inputs": [
        {
          "internalType": "address",
          "name": "_from",
          "type": "address"
        },
        {
          "internalType": "address",
          "name": "_to",
          "type": "address"
        },
        {
          "internalType": "uint256",
          "name": "_tokenId",
          "type": "uint256"
        }
      ],
      "name": "transferFrom",
      "outputs": [],
      "stateMutability": "nonpayable",
      "type": "function"
    },
    {
      "inputs": [
        {
          "internalType": "string",
          "name": "_kryptoBird",
          "type": "string"
        },
        {
          "internalType": "string",
          "name": "_kryptoMonsDecr",
          "type": "string"
        },
        {
          "internalType": "string",
          "name": "_kryptoMonsName",
          "type": "string"
        }
      ],
      "name": "mint",
      "outputs": [],
      "stateMutability": "nonpayable",
      "type": "function"
    }
  ],
  "bytecode": "0x60806040523480156200001157600080fd5b506040518060400160405280600a81526020017f4b727970746f42697264000000000000000000000000000000000000000000008152506040518060400160405280600681526020017f4b424952445a00000000000000000000000000000000000000000000000000008152508181620000d37f13b182f4c0e5b2efbac0efe6cf6d756c8b89f4b79c5707a043ed9ea740574ee97f7feaf19471f34a12a7eaf32d5f3090aa2260ea8624dc8a138e74e0bf0f62307618620001f960201b60201c565b8160019080519060200190620000eb929190620002d0565b50806002908051906020019062000104929190620002d0565b5050506200017c7f0e60019febab7c17be95ca129aaa3424c3f52327a7b3badaff87fa2c48f39db67f3a6eb71757dfc6e784c1459d26270140c2c147d95ca985c80026fc5301c3eca17f8a7e378434598edc36d108689a030cbc9d7d465de4f74c71bae1028eed6a881b1818620001f960201b60201c565b620001f17f8230223f691b981717299fae9549350a0d894555723531f02108b1f522c1a7977f6da5e1284143cdd2d15038a59bde3be031250f00291d64494c12d967b3a4e0c37fc53637662700e6c65104059db8bba34439e0c32483ab7c34e3ccae52c73954951818620001f960201b60201c565b505062000467565b63ffffffff60e01b817bffffffffffffffffffffffffffffffffffffffffffffffffffffffff19160362000264576040517f08c379a00000000000000000000000000000000000000000000000000000000081526004016200025b90620003e1565b60405180910390fd5b6001600080837bffffffffffffffffffffffffffffffffffffffffffffffffffffffff19167bffffffffffffffffffffffffffffffffffffffffffffffffffffffff1916815260200190815260200160002060006101000a81548160ff02191690831515021790555050565b828054620002de9062000432565b90600052602060002090601f0160209004810192826200030257600085556200034e565b82601f106200031d57805160ff19168380011785556200034e565b828001600101855582156200034e579182015b828111156200034d57825182559160200191906001019062000330565b5b5090506200035d919062000361565b5090565b5b808211156200037c57600081600090555060010162000362565b5090565b600082825260208201905092915050565b7f496e76616c696420696e74657266616365207265717565737400000000000000600082015250565b6000620003c960198362000380565b9150620003d68262000391565b602082019050919050565b60006020820190508181036000830152620003fc81620003ba565b9050919050565b7f4e487b7100000000000000000000000000000000000000000000000000000000600052602260045260246000fd5b600060028204905060018216806200044b57607f821691505b60208210810362000461576200046062000403565b5b50919050565b61200f80620004776000396000f3fe608060405234801561001057600080fd5b50600436106100ea5760003560e01c80634f6ccce71161008c57806393ab6e561161006657806393ab6e561461028357806395d89b41146102b3578063d645ddf6146102d1578063f9e2633e146102ed576100ea565b80634f6ccce7146101f35780636352211e1461022357806370a0823114610253576100ea565b80630cb7e7df116100c85780630cb7e7df1461015957806318160ddd1461018957806323b872dd146101a75780632f745c59146101c3576100ea565b806301ffc9a7146100ef57806306fdde031461011f578063095ea7b31461013d575b600080fd5b610109600480360381019061010491906113c1565b61031d565b6040516101169190611409565b60405180910390f35b610127610384565b60405161013491906114bd565b60405180910390f35b61015760048036038101906101529190611573565b610416565b005b610173600480360381019061016e91906115b3565b6105b1565b60405161018091906114bd565b60405180910390f35b61019161065d565b60405161019e91906115ef565b60405180910390f35b6101c160048036038101906101bc919061160a565b61066a565b005b6101dd60048036038101906101d89190611573565b61068d565b6040516101ea91906115ef565b60405180910390f35b61020d600480360381019061020891906115b3565b61073d565b60405161021a91906115ef565b60405180910390f35b61023d600480360381019061023891906115b3565b6107ae565b60405161024a919061166c565b60405180910390f35b61026d60048036038101906102689190611687565b61085f565b60405161027a91906115ef565b60405180910390f35b61029d600480360381019061029891906115b3565b610916565b6040516102aa91906114bd565b60405180910390f35b6102bb6109c2565b6040516102c891906114bd565b60405180910390f35b6102eb60048036038101906102e691906117e9565b610a54565b005b610307600480360381019061030291906115b3565b610bd1565b60405161031491906114bd565b60405180910390f35b6000806000837bffffffffffffffffffffffffffffffffffffffffffffffffffffffff19167bffffffffffffffffffffffffffffffffffffffffffffffffffffffff1916815260200190815260200160002060009054906101000a900460ff169050919050565b606060018054610393906118bf565b80601f01602080910402602001604051908101604052809291908181526020018280546103bf906118bf565b801561040c5780601f106103e15761010080835404028352916020019161040c565b820191906000526020600020905b8154815290600101906020018083116103ef57829003601f168201915b5050505050905090565b6000610421826107ae565b90508073ffffffffffffffffffffffffffffffffffffffff168373ffffffffffffffffffffffffffffffffffffffff1603610491576040517f08c379a000000000000000000000000000000000000000000000000000000000815260040161048890611962565b60405180910390fd5b8073ffffffffffffffffffffffffffffffffffffffff163373ffffffffffffffffffffffffffffffffffffffff16146104ff576040517f08c379a00000000000000000000000000000000000000000000000000000000081526004016104f6906119f4565b60405180910390fd5b826005600084815260200190815260200160002060006101000a81548173ffffffffffffffffffffffffffffffffffffffff021916908373ffffffffffffffffffffffffffffffffffffffff160217905550818373ffffffffffffffffffffffffffffffffffffffff168273ffffffffffffffffffffffffffffffffffffffff167f8c5be1e5ebec7d5bd14f71427d1e84f3dd0314c0f7b2291e5b200ac8c7c3b92560405160405180910390a4505050565b600c81815481106105c157600080fd5b9060005260206000200160009150905080546105dc906118bf565b80601f0160208091040260200160405190810160405280929190818152602001828054610608906118bf565b80156106555780601f1061062a57610100808354040283529160200191610655565b820191906000526020600020905b81548152906001019060200180831161063857829003601f168201915b505050505081565b6000600680549050905090565b6106743382610c7d565b61067d57600080fd5b610688838383610d0c565b505050565b60006106988361085f565b82106106d9576040517f08c379a00000000000000000000000000000000000000000000000000000000081526004016106d090611a60565b60405180910390fd5b600860008473ffffffffffffffffffffffffffffffffffffffff1673ffffffffffffffffffffffffffffffffffffffff168152602001908152602001600020828154811061072a57610729611a80565b5b9060005260206000200154905092915050565b600061074761065d565b8210610788576040517f08c379a000000000000000000000000000000000000000000000000000000000815260040161077f90611afb565b60405180910390fd5b6006828154811061079c5761079b611a80565b5b90600052602060002001549050919050565b6000806003600084815260200190815260200160002060009054906101000a900473ffffffffffffffffffffffffffffffffffffffff169050600073ffffffffffffffffffffffffffffffffffffffff168173ffffffffffffffffffffffffffffffffffffffff1603610856576040517f08c379a000000000000000000000000000000000000000000000000000000000815260040161084d90611b8d565b60405180910390fd5b80915050919050565b60008073ffffffffffffffffffffffffffffffffffffffff168273ffffffffffffffffffffffffffffffffffffffff16036108cf576040517f08c379a00000000000000000000000000000000000000000000000000000000081526004016108c690611b8d565b60405180910390fd5b600460008373ffffffffffffffffffffffffffffffffffffffff1673ffffffffffffffffffffffffffffffffffffffff168152602001908152602001600020549050919050565b600a818154811061092657600080fd5b906000526020600020016000915090508054610941906118bf565b80601f016020809104026020016040519081016040528092919081815260200182805461096d906118bf565b80156109ba5780601f1061098f576101008083540402835291602001916109ba565b820191906000526020600020905b81548152906001019060200180831161099d57829003601f168201915b505050505081565b6060600280546109d1906118bf565b80601f01602080910402602001604051908101604052809291908181526020018280546109fd906118bf565b8015610a4a5780601f10610a1f57610100808354040283529160200191610a4a565b820191906000526020600020905b815481529060010190602001808311610a2d57829003601f168201915b5050505050905090565b600d83604051610a649190611be9565b908152602001604051809103902060009054906101000a900460ff1615610ac0576040517f08c379a0000000000000000000000000000000000000000000000000000000008152600401610ab790611c72565b60405180910390fd5b600a83908060018154018082558091505060019003906000526020600020016000909190919091509080519060200190610afb9291906112b2565b50600b82908060018154018082558091505060019003906000526020600020016000909190919091509080519060200190610b379291906112b2565b50600c81908060018154018082558091505060019003906000526020600020016000909190919091509080519060200190610b739291906112b2565b5060006001600a80549050610b889190611cc1565b9050610b943382610f51565b6001600d85604051610ba69190611be9565b908152602001604051809103902060006101000a81548160ff02191690831515021790555050505050565b600b8181548110610be157600080fd5b906000526020600020016000915090508054610bfc906118bf565b80601f0160208091040260200160405190810160405280929190818152602001828054610c28906118bf565b8015610c755780601f10610c4a57610100808354040283529160200191610c75565b820191906000526020600020905b815481529060010190602001808311610c5857829003601f168201915b505050505081565b6000610c8882610f72565b610cc7576040517f08c379a0000000000000000000000000000000000000000000000000000000008152600401610cbe90611d41565b60405180910390fd5b6000610cd2836107ae565b90508073ffffffffffffffffffffffffffffffffffffffff168473ffffffffffffffffffffffffffffffffffffffff161491505092915050565b600073ffffffffffffffffffffffffffffffffffffffff168273ffffffffffffffffffffffffffffffffffffffff1603610d7b576040517f08c379a0000000000000000000000000000000000000000000000000000000008152600401610d7290611dd3565b60405180910390fd5b8273ffffffffffffffffffffffffffffffffffffffff16610d9b826107ae565b73ffffffffffffffffffffffffffffffffffffffff1614610df1576040517f08c379a0000000000000000000000000000000000000000000000000000000008152600401610de890611e65565b60405180910390fd5b6001600460008573ffffffffffffffffffffffffffffffffffffffff1673ffffffffffffffffffffffffffffffffffffffff1681526020019081526020016000206000828254610e419190611cc1565b925050819055506001600460008473ffffffffffffffffffffffffffffffffffffffff1673ffffffffffffffffffffffffffffffffffffffff1681526020019081526020016000206000828254610e989190611e85565b92505081905550816003600083815260200190815260200160002060006101000a81548173ffffffffffffffffffffffffffffffffffffffff021916908373ffffffffffffffffffffffffffffffffffffffff160217905550808273ffffffffffffffffffffffffffffffffffffffff168473ffffffffffffffffffffffffffffffffffffffff167fddf252ad1be2c89b69c2b068fc378daa952ba7f163c4a11628f55a4df523b3ef60405160405180910390a4505050565b610f5b8282610fe4565b610f64816111a5565b610f6e82826111ee565b5050565b6000806003600084815260200190815260200160002060009054906101000a900473ffffffffffffffffffffffffffffffffffffffff169050600073ffffffffffffffffffffffffffffffffffffffff168173ffffffffffffffffffffffffffffffffffffffff161415915050919050565b600073ffffffffffffffffffffffffffffffffffffffff168273ffffffffffffffffffffffffffffffffffffffff1603611053576040517f08c379a000000000000000000000000000000000000000000000000000000000815260040161104a90611f4d565b60405180910390fd5b61105c81610f72565b1561109c576040517f08c379a000000000000000000000000000000000000000000000000000000000815260040161109390611fb9565b60405180910390fd5b816003600083815260200190815260200160002060006101000a81548173ffffffffffffffffffffffffffffffffffffffff021916908373ffffffffffffffffffffffffffffffffffffffff1602179055506001600460008473ffffffffffffffffffffffffffffffffffffffff1673ffffffffffffffffffffffffffffffffffffffff168152602001908152602001600020600082825461113e9190611e85565b92505081905550808273ffffffffffffffffffffffffffffffffffffffff16600073ffffffffffffffffffffffffffffffffffffffff167fddf252ad1be2c89b69c2b068fc378daa952ba7f163c4a11628f55a4df523b3ef60405160405180910390a45050565b6006805490506007600083815260200190815260200160002081905550600681908060018154018082558091505060019003906000526020600020016000909190919091505550565b600860008373ffffffffffffffffffffffffffffffffffffffff1673ffffffffffffffffffffffffffffffffffffffff168152602001908152602001600020805490506009600083815260200190815260200160002081905550600860008373ffffffffffffffffffffffffffffffffffffffff1673ffffffffffffffffffffffffffffffffffffffff1681526020019081526020016000208190806001815401808255809150506001900390600052602060002001600090919091909150555050565b8280546112be906118bf565b90600052602060002090601f0160209004810192826112e05760008555611327565b82601f106112f957805160ff1916838001178555611327565b82800160010185558215611327579182015b8281111561132657825182559160200191906001019061130b565b5b5090506113349190611338565b5090565b5b80821115611351576000816000905550600101611339565b5090565b6000604051905090565b600080fd5b600080fd5b60007fffffffff0000000000000000000000000000000000000000000000000000000082169050919050565b61139e81611369565b81146113a957600080fd5b50565b6000813590506113bb81611395565b92915050565b6000602082840312156113d7576113d661135f565b5b60006113e5848285016113ac565b91505092915050565b60008115159050919050565b611403816113ee565b82525050565b600060208201905061141e60008301846113fa565b92915050565b600081519050919050565b600082825260208201905092915050565b60005b8381101561145e578082015181840152602081019050611443565b8381111561146d576000848401525b50505050565b6000601f19601f8301169050919050565b600061148f82611424565b611499818561142f565b93506114a9818560208601611440565b6114b281611473565b840191505092915050565b600060208201905081810360008301526114d78184611484565b905092915050565b600073ffffffffffffffffffffffffffffffffffffffff82169050919050565b600061150a826114df565b9050919050565b61151a816114ff565b811461152557600080fd5b50565b60008135905061153781611511565b92915050565b6000819050919050565b6115508161153d565b811461155b57600080fd5b50565b60008135905061156d81611547565b92915050565b6000806040838503121561158a5761158961135f565b5b600061159885828601611528565b92505060206115a98582860161155e565b9150509250929050565b6000602082840312156115c9576115c861135f565b5b60006115d78482850161155e565b91505092915050565b6115e98161153d565b82525050565b600060208201905061160460008301846115e0565b92915050565b6000806000606084860312156116235761162261135f565b5b600061163186828701611528565b935050602061164286828701611528565b92505060406116538682870161155e565b9150509250925092565b611666816114ff565b82525050565b6000602082019050611681600083018461165d565b92915050565b60006020828403121561169d5761169c61135f565b5b60006116ab84828501611528565b91505092915050565b600080fd5b600080fd5b7f4e487b7100000000000000000000000000000000000000000000000000000000600052604160045260246000fd5b6116f682611473565b810181811067ffffffffffffffff82111715611715576117146116be565b5b80604052505050565b6000611728611355565b905061173482826116ed565b919050565b600067ffffffffffffffff821115611754576117536116be565b5b61175d82611473565b9050602081019050919050565b82818337600083830152505050565b600061178c61178784611739565b61171e565b9050828152602081018484840111156117a8576117a76116b9565b5b6117b384828561176a565b509392505050565b600082601f8301126117d0576117cf6116b4565b5b81356117e0848260208601611779565b91505092915050565b6000806000606084860312156118025761180161135f565b5b600084013567ffffffffffffffff8111156118205761181f611364565b5b61182c868287016117bb565b935050602084013567ffffffffffffffff81111561184d5761184c611364565b5b611859868287016117bb565b925050604084013567ffffffffffffffff81111561187a57611879611364565b5b611886868287016117bb565b9150509250925092565b7f4e487b7100000000000000000000000000000000000000000000000000000000600052602260045260246000fd5b600060028204905060018216806118d757607f821691505b6020821081036118ea576118e9611890565b5b50919050565b7f4572726f72202d20617070726f76616c20746f2063757272656e74206f776e6560008201527f7200000000000000000000000000000000000000000000000000000000000000602082015250565b600061194c60218361142f565b9150611957826118f0565b604082019050919050565b6000602082019050818103600083015261197b8161193f565b9050919050565b7f43757272656e742063616c6c6572206973206e6f7420746865206f776e65722060008201527f6f662074686520746f6b656e0000000000000000000000000000000000000000602082015250565b60006119de602c8361142f565b91506119e982611982565b604082019050919050565b60006020820190508181036000830152611a0d816119d1565b9050919050565b7f6f776e657220696e646578206973206f7574206f6620626f756e647300000000600082015250565b6000611a4a601c8361142f565b9150611a5582611a14565b602082019050919050565b60006020820190508181036000830152611a7981611a3d565b9050919050565b7f4e487b7100000000000000000000000000000000000000000000000000000000600052603260045260246000fd5b7f676c6f62616c20696e646578206973206f7574206f6620626f756e6473000000600082015250565b6000611ae5601d8361142f565b9150611af082611aaf565b602082019050919050565b60006020820190508181036000830152611b1481611ad8565b9050919050565b7f6f776e657220717565727920666f72206e6f6e2d6578697374656e7420746f6b60008201527f656e000000000000000000000000000000000000000000000000000000000000602082015250565b6000611b7760228361142f565b9150611b8282611b1b565b604082019050919050565b60006020820190508181036000830152611ba681611b6a565b9050919050565b600081905092915050565b6000611bc382611424565b611bcd8185611bad565b9350611bdd818560208601611440565b80840191505092915050565b6000611bf58284611bb8565b915081905092915050565b7f4572726f72202d206b727970746f4269726420616c726561647920657869737460008201527f7300000000000000000000000000000000000000000000000000000000000000602082015250565b6000611c5c60218361142f565b9150611c6782611c00565b604082019050919050565b60006020820190508181036000830152611c8b81611c4f565b9050919050565b7f4e487b7100000000000000000000000000000000000000000000000000000000600052601160045260246000fd5b6000611ccc8261153d565b9150611cd78361153d565b925082821015611cea57611ce9611c92565b5b828203905092915050565b7f746f6b656e20646f6573206e6f74206578697374000000000000000000000000600082015250565b6000611d2b60148361142f565b9150611d3682611cf5565b602082019050919050565b60006020820190508181036000830152611d5a81611d1e565b9050919050565b7f4572726f72202d20455243373231205472616e7366657220746f20746865207a60008201527f65726f2061646472657373000000000000000000000000000000000000000000602082015250565b6000611dbd602b8361142f565b9150611dc882611d61565b604082019050919050565b60006020820190508181036000830152611dec81611db0565b9050919050565b7f547279696e6720746f207472616e73666572206120746f6b656e20616464726560008201527f737320646f6573206e6f74206578697374730000000000000000000000000000602082015250565b6000611e4f60328361142f565b9150611e5a82611df3565b604082019050919050565b60006020820190508181036000830152611e7e81611e42565b9050919050565b6000611e908261153d565b9150611e9b8361153d565b9250827fffffffffffffffffffffffffffffffffffffffffffffffffffffffffffffffff03821115611ed057611ecf611c92565b5b828201905092915050565b7f4552433732313a206d696e74696e6720746f20746865207a65726f206164647260008201527f6573730000000000000000000000000000000000000000000000000000000000602082015250565b6000611f3760238361142f565b9150611f4282611edb565b604082019050919050565b60006020820190508181036000830152611f6681611f2a565b9050919050565b7f4552433732313a20746f6b656e20616c7265616479206d696e74656400000000600082015250565b6000611fa3601c8361142f565b9150611fae82611f6d565b602082019050919050565b60006020820190508181036000830152611fd281611f96565b905091905056fea2646970667358221220e786ec9630b5799eff6e259f0d021a73324073d00a33b0fbfb9772be8cfa5c4264736f6c634300080d0033",
  "immutableReferences": {},
  "source": "// SPDX-License-Identifier: MIT\r\npragma solidity ^0.8.0;\r\n\r\nimport \"./ERC721Connector.sol\";\r\n\r\ncontract KryptoBird is ERC721Connector {\r\n    // array to store our nfts\r\n    string[] public kryptoBirdz;\r\n    string[] public kryptoMonsDecription;\r\n    string[] public kryptoMonsName;\r\n\r\n    mapping(string => bool) _kryptoBirdzExists;\r\n\r\n    function mint(string memory _kryptoBird, string memory _kryptoMonsDecr, string memory _kryptoMonsName) public {\r\n        require(!_kryptoBirdzExists[_kryptoBird], 'Error - kryptoBird already exists');\r\n        // this is deprecated - uint_id = KryptoBirdz.push(_kryptoBird)\r\n        // .push no longer returns the length but a  ref to the added element\r\n        // therefore we have to do it the following way\r\n        kryptoBirdz.push(_kryptoBird);\r\n        kryptoMonsDecription.push(_kryptoMonsDecr);\r\n        kryptoMonsName.push(_kryptoMonsName);\r\n        uint256 _id = kryptoBirdz.length - 1;\r\n\r\n        _mint(msg.sender, _id);\r\n        _kryptoBirdzExists[_kryptoBird] = true;\r\n    }\r\n\r\n    constructor() ERC721Connector(\"KryptoBird\", \"KBIRDZ\") {}\r\n}\r\n",
  "sourcePath": "C:\\Users\\Tino\\Desktop\\workspace\\projects\\NFTMarketplace\\src\\contracts\\KryptoBirdz.sol",
  "compiler": {
    "name": "solc",
    "version": "0.8.13+commit.abaa5c0e.Emscripten.clang"
  },
  "schemaVersion": "3.4.6",
  "updatedAt": "2022-04-01T09:08:29.273Z",
  "networkType": "ethereum",
  "devdoc": {
    "kind": "dev",
    "methods": {
      "ownerOf(uint256)": {
        "details": "NFTs assigned to zero address are considered invalid, and queries  about them do throw.",
        "params": {
          "_tokenId": "The identifier for an NFT"
        },
        "returns": {
          "_0": "The address of the owner of the NFT"
        }
      },
      "supportsInterface(bytes4)": {
        "details": "Interface identification is specified in ERC-165. This function  uses less than 30,000 gas.",
        "params": {
          "interfaceID": "The interface identifier, as specified in ERC-165"
        },
        "returns": {
          "_0": "`true` if the contract implements `interfaceID` and  `interfaceID` is not 0xffffffff, `false` otherwise"
        }
      }
    },
    "version": 1
  },
  "userdoc": {
    "kind": "user",
    "methods": {
      "name()": {
        "notice": "A descriptive name for a collection of NFTs in this contract"
      },
      "ownerOf(uint256)": {
        "notice": "Find the owner of an NFT"
      },
      "supportsInterface(bytes4)": {
        "notice": "Query if a contract implements an interface"
      },
      "symbol()": {
        "notice": "An abbreviated name for NFTs in this contract"
      }
    },
    "version": 1
  }
}